:1000000045C0000060C000005EC000005CC0000091
:100010005AC0000058C0000056C0000054C0000084
:1000200052C0000050C000004EC000004CC0000094
:100030004AC00000C0C1000046C0000044C000002B
:1000400042C0000040C000003EC000003CC00000B4
:100050003AC0000038C0000036C0000034C00000C4
:1000600032C0000030C000002EC000002CC00000D4
:100070002AC0000028C0000026C0000024C00000E4
:1000800022C0000020C000001EC0000011241FBEBE
:10009000CFEFD0E4DEBFCDBF11E0A0E0B1E0ECE1F6
:1000A000F6E000E00BBF02C007900D92AC30B10744
:1000B000D9F721E0ACE0B1E001C01D92A731B20751
:1000C000E1F758D2A9C29CCF009719F0019761F0CF
:1000D000DEC081E090E020910E0130910F01232BD2
:1000E00009F0D7C080E0D5C080910601909107014A
:1000F0008130910509F0DAC02091040130910501A9
:100100002230310509F0CDC08091000190910101AC
:100110008130910509F49DC02091020130910301C5
:100120002130310509F4CBC0969587959093010154
:1001300080930001369527953093030120930201A7
:1001400095C0892B09F0C0C08091000190910101F8
:100150008130910509F46DC02091020130910301B5
:100160002038310509F4ABC096958795909301012D
:1001700080930001220F331F30930301209302016B
:1001800075C020910001309101012031310509F441
:100190004EC080910201909103018130910509F4D4
:1001A0009CC0220F331F30930101209300019695CC
:1001B0008795909303018093020158C0009731F511
:1001C00023303105B1F5809100019091010180311A
:1001D000910579F120910201309103012038310518
:1001E00009F47BC0880F991F90930101809300014F
:1001F000220F331F309303012093020137C09695DD
:100200008795909301018093000130C02330310520
:1002100071F420910001309101012031310539F054
:10022000220F331F30930101209300011FC000975C
:1002300071F4809102019091030180389105B1F031
:10024000880F991F90930301809302010FC00197BB
:1002500069F480910201909103018130910531F0A0
:1002600096958795909303018093020110920F0158
:1002700010920E018FEF9FEF90930701809306017C
:10028000909305018093040180E090E002C080E03B
:1002900090E02091020128B92091000120952BB90E
:1002A00008952330310509F0B1CF6BCF20910401BF
:1002B000309105012230310509F080CF42CF809185
:1002C0000001909101019BCF80910001909101016B
:1002D0008130910509F093CFC9CF20910001309171
:1002E00001019ECFCF92DF92EF92FF921F93CF93A7
:1002F000DF9310920D0180911001882309F453C0FF
:1003000080E01BE0C0911501D0911601189FC00D2F
:10031000D11D11244D815E816F81788589819A81FB
:10032000AB81BC81481759076A077B07B0F0888109
:10033000E985FA85082E000C990B09958883809130
:100340000D01E0911501F0911601189FE00DF11DCE
:100350001124158216821782108680910D01E0917A
:100360001501F0911601189FE00DF11D1124C580B3
:10037000D680E780F0844091080150910901609196
:100380000A0170910B014C0D5D1D6E1D7F1D458393
:100390005683678370878F5F80930D019091100162
:1003A000891708F4AFCFDF91CF911F91FF90EF90A5
:1003B000DF90CF9008951F920F920FB60F921124E5
:1003C0000BB60F922F933F934F935F936F937F934F
:1003D0008F939F93AF93BF93EF93FF9380911101FE
:1003E00090911201A0911301B09114010197A109FC
:1003F000B1098093110190931201A0931301B0935E
:100400001401892B8A2B8B2B89F46CDF80910801D6
:1004100090910901A0910A01B0910B018093110103
:1004200090931201A0931301B0931401FF91EF91E7
:10043000BF91AF919F918F917F916F915F914F91FC
:100440003F912F910F900BBE0F900FBE0F901F90FA
:1004500018958BE0809381008DE790E09093890060
:100460008093880082E080936F0010928500109244
:1004700084008091080190910901A0910A01B09136
:100480000B018093110190931201A0931301B0937B
:1004900014018FB780688FBF0895EAE7F0E080818C
:1004A000806E80830895883060F0ECE7F0E0808112
:1004B00080838FE000008150E9F78FE080930C018A
:1004C000089580937C00F5CF80E0EDDF20917800E7
:1004D00030917900C901815E91408831910580F0A9
:1004E0008F519140883E910570F081E090E02E356B
:1004F000314014F480E090E0919581959109089540
:100500008FEF9FEF089581E090E0089587E0CBDFC3
:1005100080917800909179009C01883142E09407A5
:1005200059F08D5B9240873C910548F0203E314068
:100530004CF08FEF9FEF08958FEF9FEF089582E0CB
:1005400090E0089583E090E00895892B81F4BCDF6A
:100550009093070180930601D9DF90930501809362
:10056000040181E090E090930F0180930E0180E000
:1005700090E00895CF93DF93CDB7DEB766970FB6BF
:10058000F894DEBF0FBECDBF1FEF1AB91BB814B968
:1005900015B817B982DF82E080931001CE01019671
:1005A0009093160180931501198386E990E0A0E0ED
:1005B000B0E08A839B83AC83BD838E839F83A887AF
:1005C000B98784E690E09B878A871C878EE190E05C
:1005D000A0E0B0E08D879E87AF87B88B898B9A8B20
:1005E000AB8BBC8B85EA92E09E8B8D8B82E390E097
:1005F000A0E0B0E08093080190930901A0930A0164
:10060000B0930B018093110190931201A0931301F9
:0C061000B09314011EDFFFCFF894FFCF61
:0C061C0001008000FFFFFFFF0100000054
:00000001FF
