:1000000045C0000060C000005EC000005CC0000091
:100010005AC0000058C0000056C0000054C0000084
:1000200052C0000050C000004EC000004CC0000094
:100030004AC00000B2C0000046C0000044C000003A
:1000400042C0000040C000003EC000003CC00000B4
:100050003AC0000038C0000036C0000034C00000C4
:1000600032C0000030C000002EC000002CC00000D4
:100070002AC0000028C0000026C0000024C00000E4
:1000800022C0000020C000001EC0000011241FBEBE
:10009000CFEFD0E4DEBFCDBF11E0A0E0B1E0E4E4FB
:1000A000F4E000E00BBF02C007900D92A430B1074E
:1000B000D9F721E0A4E0B1E001C01D92AC30B20755
:1000C000E1F77AD1BDC19CCFCF92DF92EF92FF9240
:1000D0001F93CF93DF931092040180910501882331
:1000E00009F453C080E01BE0C0910A01D0910B01DC
:1000F000189FC00DD11D11244D815E816F817885BF
:1001000089819A81AB81BC81481759076A077B07AF
:10011000B0F08881E985FA85082E000C990B0995C5
:10012000888380910401E0910A01F0910B01189FEE
:10013000E00DF11D11241582168217821086809120
:100140000401E0910A01F0910B01189FE00DF11DEF
:100150001124C580D680E780F08440910001509141
:10016000010160910201709103014C0D5D1D6E1D36
:100170007F1D45835683678370878F5F809304015B
:1001800090910501891708F4AFCFDF91CF911F91AE
:10019000FF90EF90DF90CF9008951F920F920FB6CF
:1001A0000F9211240BB60F922F933F934F935F93AF
:1001B0006F937F938F939F93AF93BF93EF93FF932F
:1001C0008091060190910701A0910801B091090169
:1001D0000197A109B1098093060190930701A093AB
:1001E0000801B0930901892B8A2B8B2B89F46CDFD2
:1001F0008091000190910101A0910201B091030151
:100200008093060190930701A0930801B093090120
:10021000FF91EF91BF91AF919F918F917F916F91DE
:100220005F914F913F912F910F900BBE0F900FBE9A
:100230000F901F9018958BE0809381008DE790E0E0
:10024000909389008093880082E080936F001092E1
:100250008500109284008091000190910101A0918D
:100260000201B09103018093060190930701A093CE
:100270000801B09309018FB780688FBF08958FEE92
:100280008BB90000489B29C0499B29C04A9B29C0C3
:100290004B9B29C08FED8BB90000489B26C0499B22
:1002A00026C04A9B26C04B9B26C08FEB8BB9000013
:1002B000489B23C0499B23C04A9B23C04B9B23C020
:1002C0008FE78BB90000489B20C0499B20C04A9B08
:1002D00020C04B9B20C080E0089581E3089584E313
:1002E000089587E308958AE2089582E3089585E3F7
:1002F000089588E3089580E3089583E3089586E3ED
:10030000089589E3089583E2089581E4089582E4DD
:10031000089583E4089584E40895181619065CF09E
:100320000895000021503109E1F74F5F5F4F4817F2
:10033000590729F4089540E050E077E063E0272F63
:10034000362FEFCF179888B9169A0000169882E0DA
:1003500090E0E3CF089584E690E0DFDF88E3F2DF0A
:1003600086E0F0DF8FE0EEDF81E0ECDF8AE090E016
:10037000D4CF0895179A88B9169A0000169881E08C
:1003800090E0CBCF0895813118F48158DBCF0895E8
:100390008155D8CF08950F931F93CF938C016FDFB2
:1003A000C82F882321F081E0EEDF8C2FE3DFC80126
:1003B000CF911F910F910895CF93DF93CDB7DEB703
:1003C0002B970FB6F894DEBF0FBECDBF1FEF11B94C
:1003D00012B817B918B880EF8AB98FE08BB9BBDFB4
:1003E00081E080930501CE01019690930B018093EB
:1003F0000A01198384E690E0A0E0B0E08A839B8341
:10040000AC83BD838E839F83A887B9878BEC91E0F3
:100410009B878A8782E390E0A0E0B0E080930001B0
:1004200090930101A0930201B09303018093060110
:1004300090930701A0930801B0930901FCDEFFCF60
:04044000F894FFCF5E
:0404440001000000B3
:00000001FF
